:020000040800F2
:1000000000100020751500080515000807150008E8
:1000100000000000000000000000000000000000E0
:1000200000000000000000000000000009150008AA
:1000300000000000000000000B1500080D1500086E
:10004000C515000800000000C5150008C51500080A
:10005000C5150008C5150008C5150008C515000818
:1000600000000000C5150008C5150008C5150008EA
:10007000C5150008C5150008C515000800000000DA
:10008000C51500080000000000000000C5150008AC
:1000900000000000C5150008C5150008C5150008BA
:1000A00000000000C515000800000000C51500088C
:1000B0000000000000000000000000000000000040
:1000C00010B5064C2378002B07D1054B002B02D02E
:1000D000044800E000BF0123237010BDAC000020E5
:1000E0000000000034160008044B10B5002B03D0AC
:1000F0000349044800E000BF10BDC04600000000F6
:10010000B00000203416000802B4714649084900C6
:10011000095C49008E4402BC7047C0460022430877
:100120008B4274D303098B425FD3030A8B4244D3BF
:10013000030B8B4228D3030C8B420DD3FF22090201
:1001400012BA030C8B4202D31212090265D0030BC0
:100150008B4219D300E0090AC30B8B4201D3CB03B6
:10016000C01A5241830B8B4201D38B03C01A5241F8
:10017000430B8B4201D34B03C01A5241030B8B42FA
:1001800001D30B03C01A5241C30A8B4201D3CB02E5
:10019000C01A5241830A8B4201D38B02C01A5241CA
:1001A000430A8B4201D34B02C01A5241030A8B42CD
:1001B00001D30B02C01A5241CDD2C3098B4201D3E5
:1001C000CB01C01A524183098B4201D38B01C01A63
:1001D000524143098B4201D34B01C01A52410309DA
:1001E0008B4201D30B01C01A5241C3088B4201D389
:1001F000CB00C01A524183088B4201D38B00C01A36
:10020000524143088B4201D34B00C01A5241411A5C
:1002100000D20146524110467047FFE701B5002069
:1002200000F006F802BDC0460029F7D076E7704717
:100230007047C04610B5040000F0E6FBFA218900C3
:10024000FFF76CFF00F066F8012000222100404219
:1002500000F030F8002010BD1023064A10B51168D8
:1002600000200B431360FFF7E5FF01F001F90020C8
:1002700010BDC04600200240024A136801331360DB
:100280007047C046C8000020014B18687047C04640
:10029000C800002037B50190FFF7F6FF019C05006C
:1002A000631C5A1E9341E418FFF7EEFF401BA04267
:1002B000FAD337BD70B58901002814DA0F23C0B214
:1002C0000340083B114A9B089B009B1803221040E7
:1002D0009040FC321500114085408140DC69AC4300
:1002E0002143D96170BD032583082840A840FC350F
:1002F0002E00074A9B009B18C0228640294081405F
:1003000092009C58B44321439950EBE700ED00E084
:1003100000E100E0094A431E012093420DD8C021AC
:10032000074A08485360036A09061B021B0A0B436D
:10033000036200200723906013607047FFFFFF00F7
:1003400010E000E000ED00E0F0B50B6887B002932C
:1003500000230191029ADA4001D107B0F0BD0122D9
:100360009A4003920399029A0A40009200D18CE0CD
:10037000019A1021526816008E43022E0ED10725D5
:100380001D40AD000139A940DC08A4000419276A0A
:100390008F4301990969A9400F43276203245F0035
:1003A000BC40E4430568013E2540AC4603251540AA
:1003B000BD4061460D430560012E0FD80199866846
:1003C000CD682640BD4035438560466803991509D0
:1003D0008E4301210D409D4035434560C56801991C
:1003E0002C408D688021BD4049052C43C4600A42E1
:1003F0004BD00121264C0326A5691E400D43A56163
:10040000A4699D080C400594059C0F242149AD006A
:10041000B6006D18B4409021AF68C905A743002409
:1004200088420CD01C490134884208D01B49013451
:10043000884204D01A490334884200D1023CB440B7
:1004400000993C430E00AC60164CCD4327683E43F8
:10045000D10301D43E002E4026606768009E3E43D3
:10046000910301D43E002E406660A768009E3E4383
:10047000D10201D43E002E40A660E668009F3743BB
:10048000920201D42E403700E760013362E7C04694
:10049000001002400000014000040048000800482D
:1004A000000C004800040140002A01D0816170471F
:1004B0008162FCE7F0B5036885B00500DB072FD447
:1004C0002B689B0700D581E02B681B0700D5BCE09B
:1004D0002B685B0700D5DFE02B68DB061AD56A695D
:1004E000B54C0423012A00D04BE1616B02260B437B
:1004F0006363636B1A436263FFF7C6FE0700636BB7
:10050000334200D136E1F821626BAB698A43DB00EC
:1005100013436363296A002900D059E1002013E0E6
:100520000C21A54C62680A40042A06D063680B407F
:10053000082B0BD16368DB0308D523689B03BFD569
:100540006B68002BBCD1012005B0F0BD6B68012B9E
:1005500013D1802322685B0213432360FFF794FECC
:1005600080260700B60223683342A9D1FFF78CFE2C
:10057000C01B6428F7D90320E6E7002B16D12368B7
:100580008E4A80261340236023688D4AB6021340AA
:100590002360FFF779FE07002368334200D18FE71D
:1005A000FFF772FEC01B6428F6D9E4E7052B05D1DE
:1005B00080232268DB0213432360CAE723687F4A53
:1005C0001340236023687E4A1340C6E70C227A4C0E
:1005D0006368134206D063681340082B10D1636828
:1005E000DB030DD423689B0702D5EB68012BAAD14E
:1005F000F82122682B698A43DB001343236063E7F9
:10060000EA680123002A0FD02268022613432360E0
:10061000FFF73AFE070023683342E9D1FFF734FEC3
:10062000C01B0228F7D9A6E7226802269A43226057
:10063000FFF72AFE07002368334200D144E7FFF7A3
:1006400023FEC01B0228F6D995E7EA6901235A4C1C
:10065000002A10D0626A022613436362FFF714FE79
:100660000700636A334200D032E7FFF70DFEC01B7C
:100670000228F6D97FE7626A02269A436262FFF790
:1006800003FE0700636A334200D121E7FFF7FCFD58
:10069000C01B0228F6D96EE780220021464C520585
:1006A000E3690091134208D1E3691343E361E3690D
:1006B00013400393039B012300938027414E7F0047
:1006C00033683B4206D0AB68012B13D1226A134337
:1006D000236230E033683B433360FFF7D5FD019080
:1006E00033683B42EFD1FFF7CFFD019BC01A64286E
:1006F000F6D940E70122002B14D1236A0227934345
:100700002362236A033293432362FFF7BDFD060091
:10071000236A3B4225D0FFF7B7FD2B4B801B984245
:10072000F6D928E7052B0BD1216A013B0B43236245
:10073000236A1A432262FFF7A7FD022706000DE095
:10074000236A934304222362236A9343C0E7FFF79B
:100750009BFD1D4B801B984200D90CE7236A3B424E
:10076000F5D0009B012B00D0B6E6E369174A134091
:10077000E361B1E6FFF788FDC01B022800D8BEE6A2
:10078000F9E6053203D1626B9A436263BBE6626BA2
:100790000226134301226363636B93436363FFF792
:1007A00073FD0700636B334200D1B3E6FFF76CFDC6
:1007B000C01B0228F6D9DEE600100240FFFFFEFF54
:1007C000FFFFFBFF0070004088130000FFFFFFEFFA
:1007D0000C22264C012063681340082B00D1B3E69D
:1007E0002368234A1340236002292FD1FFF74CFDD1
:1007F00080260700B6042368334221D10F22E36A22
:100800009343EA6A1343E362696AAB6A62680B4323
:10081000184980250A4013436360802322685B04E3
:1008200013432360FFF730FD0600AD0423682B421D
:1008300000D073E6FFF728FD801B0228F6D99AE660
:10084000FFF722FDC01B0228D5D994E6FFF71CFD57
:1008500080250600AD0423682B4200D15EE6FFF739
:1008600013FD801B0228F6D985E6C0460010024021
:10087000FFFFFFFEFFFFC2FF70B5144C88B01022CF
:100880002100684600F0C4FE210004AD10221031A2
:10089000280000F0BDFE0C220D4E73681A40082A95
:1008A00011D10F206A46990C0140545CF26A024053
:1008B000A95CDB0305D50748FFF730FC604308B0AF
:1008C00070BD0548FAE70348F9E7C0464C16000832
:1008D0000010024000127A0000093D00F7B5012225
:1008E000434C060023680F0013408B421CD3326830
:1008F000930723D4D30729D4012322681A409742AF
:1009000067D333683B4C5B076AD4FFF7B5FF636876
:10091000394A1B061B0FD35CD840384B18600020A7
:10092000FFF788FC002008E0236893430B43236013
:10093000236813409942DAD00120FEBDF0202D49F2
:100940004B688343B06803434B60D3E7294D72681B
:100950002B68012A1AD19B03EED503216B688B43C8
:1009600013436B60FFF790FC73680190012B15D166
:100970000C226B681340042BBED0FFF785FC019B53
:10098000C01A1F4B9842F3D90320D6E7022A02D19E
:100990009B01E2D4D0E79B07DFD4CDE7022B12D036
:1009A0000C226B681342A7D0FFF76EFC019BC01AA4
:1009B000134B9842F4D9E7E7FFF766FC019BC01A96
:1009C0000F4B9842E0D80C226B681340082BF3D1F0
:1009D00092E722689A43226022681A42ACD190E7DB
:1009E0006368084A1340F268134363608DE7C046AA
:1009F000002002400010024070160008A8000020ED
:100A000088130000FFF8FFFF014B18687047C046CD
:100A1000A8000020044B054A5B685B055B0FD35CB4
:100A2000034A1068D8407047001002408016000842
:100A3000A8000020F0B5036885B00500DB0328D5C9
:100A400080220021374C5205E3690091134208D1FE
:100A5000E3691343E361E36913400393039B0123B9
:100A600000938027304E7F0033683B4226D0C0225F
:100A7000236A920013402D4E32D1236A1E406B68C8
:100A80001E43009B2662012B03D1E369284A1340D1
:100A9000E3612A68D30706D5032022490B6B834301
:100AA000A86803430B630020930617D510211D4A45
:100AB000136B8B43E9680B4313630FE033683B43CD
:100AC0003360FFF7E1FB019033683B42CFD1FFF782
:100AD000DBFB019BC01A6428F6D9032005B0F0BDEA
:100AE00069680A409342C8D08023226A206A1100B4
:100AF0005B0203432362236A0E48314003402362B2
:100B00002162D307B9D5FFF7BFFB07000222236A92
:100B10001342B2D1FFF7B8FB074BC01B9842F5D97F
:100B2000DBE7C0460010024000700040FFFCFFFF02
:100B3000FFFFFFEFFFFFFEFF8813000070B504000A
:100B40000568C269836800692968034360690343D3
:100B50003548134301400B432B606B683349206ACF
:100B60000B40E1680B436B60A369A96803433048FD
:100B700001400B430321AB602E4B1B6B0B402E49F6
:100B8000C85C80231B029A422CD1082827D8FFF783
:100B9000BBFA05260B261E2626262100FFF73AFF64
:100BA000636840005B0802E063685808234BC01884
:100BB0006168FFF7B3FA83B200200F221900914356
:100BC0000A001B0721685B0F1343CB6070BDFFF762
:100BD00053FEE5E76368580880235B02E7E70120DE
:100BE0000023EAE708281DD8FFF78EFA051C0A1C27
:100BF000141C1C1C1700FFF70DFF61684B0802E076
:100C000061680F4B4808C018FFF788FA80B2E860A7
:100C10000020DBE7FFF730FEEFE7802361681B026F
:100C20004808F0E70120D1E7F369FFFFFFCFFFFF9E
:100C3000FFF4FFFF001002406C1600080024F400CF
:100C400000127A00436A30B5DA0706D50168284CED
:100C50004A682240846A22434A609A0706D501689E
:100C6000244C4A682240C46A22434A605A0706D587
:100C70000168214C4A682240046B22434A601A07EB
:100C800006D501681D4C4A682240446B22434A60E5
:100C9000DA0606D501681A4C8A682240846B224322
:100CA0008A609A0606D50168164C8A682240C46B91
:100CB00022438A605A0610D50168134D4A68046CB5
:100CC0002A4022434A6080225203944205D14A6856
:100CD0000E4C2240446C22434A601B0606D5026833
:100CE0000B4953680B40816C0B43536030BDC046C9
:100CF000FFFFFDFFFFFFFEFFFFFFFBFFFF7FFFFF8B
:100D0000FFEFFFFFFFDFFFFFFFFFEFFFFFFF9FFF93
:100D1000FFFFF7FF70B5041E01D1012070BD050073
:100D200069352B78DBB2002B04D1020068321370D6
:100D300000F0B6FB2423012122682B7013682000E9
:100D40008B431360FFF7FAFE0128E6D0636A002B9D
:100D500002D02000FFF776FF23680B495A68002075
:100D60000A4008215A609A688A439A6001221968E9
:100D70000A431A6022002023E0666A3268342B702E
:100D800013702070CAE7C046FFF7FFFFF8B50400F4
:100D90000E0015001F002268D36933409B1B594287
:100DA0004B41AB4201D0002018E0069B0133F3D049
:100DB000069B002B13D123680C491A6803200A40B4
:100DC0001A609A68A331FF318A439A602200202377
:100DD000693213705370002368342370F8BDFFF735
:100DE00053FA069BC01B8342D5D2E4E75FFEFFFFA8
:100DF000F0B51F0003006A3316001A78040085B0AE
:100E00000D000220202A39D10138002936D0002EC9
:100E100034D08022A1685201914204D12269002A73
:100E200001D105422AD1220068321178022001291D
:100E300024D0012111700022E26622321A70FFF7DD
:100E400023FA23008021A26858331E805E8003901D
:100E5000490104338A4215D12269002A10D11E4A61
:100E60001A801E8822005A32108880B2002810D1C1
:100E7000230020226A3368341A70207005B0F0BD58
:100E8000FF22EDE7002AECD12269002AF8D07F2268
:100E9000E6E713882021013B9BB2138020000097D6
:100EA000039B0022FFF772FF002813D1A26823687A
:100EB000110080225201914207D12269002A04D1F7
:100EC0009B8C33402B800235CCE79B8C33402B70BE
:100ED0000135C7E70320D1E7FF010000F0B5802608
:100EE00005008BB0B60214220C0005A8002100F00A
:100EF00098FBB446234B24495F69EA005058234DC0
:100F0000374328605F6167465E693E400296029EF5
:100F10008026F602B4465F6937435F6167465E69C3
:100F20003E4080270396039E5E69FF033E435E6159
:100F30005B693B400493049B002C12D18E18B1884E
:100F40002200FFF7B1FA736828680593012307941C
:100F50000693089405A9FFF7F7F90D4B1C600BB039
:100F6000F0BD012C05D18A1853680193059305A99A
:100F7000F1E7022CF3D18A185368019305930123FA
:100F80000793F4E70010024000000020CC0000208E
:100F900040010020094AC00010B58358084C1018C1
:100FA0002360012904D19A6941680A439A6110BDFE
:100FB0009A6A41680A439A62F9E7C0460000002035
:100FC000CC00002010B5040000210220FFF7E2FF52
:100FD00000210320FFF7DEFF00210620FFF7DAFFE4
:100FE00000210720FFF7D6FF00210A20FFF7D2FFDC
:100FF00000210B20FFF7CEFF00210C20FFF7CAFFD6
:1010000000210D20FFF7C6FF01210220FFF7C2FFDC
:1010100001210720FFF7BEFF01210A20FFF7BAFFD9
:1010200001210B20FFF7B6FF2000FFF733F9002165
:101030000220FFF7AFFF01210620FFF7ABFF0021E1
:101040000A20FFF7A7FF01210C20FFF7A3FF2000D4
:10105000FFF720F900210720FFF79CFF0121032063
:10106000FFF798FF00210B20FFF794FF01210D20CF
:10107000FFF790FF2000FFF70DF900210620FFF792
:1010800089FF01210220FFF785FF00210C20FFF7D7
:1010900081FF01210A20FFF77DFF2000FFF7FAF80A
:1010A00010BD10B5040000210220FFF773FF0021DE
:1010B0000320FFF76FFF00210620FFF76BFF0021E1
:1010C0000720FFF767FF00210A20FFF763FF0021D9
:1010D0000B20FFF75FFF00210C20FFF75BFF0021D3
:1010E0000D20FFF757FF01210220FFF753FF0121D9
:1010F0000320FFF74FFF01210A20FFF74BFF0121DB
:101100000D20FFF747FF2000FFF7C4F80021022061
:10111000FFF740FF01210620FFF73CFF00210A20D6
:10112000FFF738FF01210C20FFF734FF2000FFF705
:10113000B1F800210320FFF72DFF01210720FFF761
:1011400029FF00210D20FFF725FF01210B20FFF7CC
:1011500021FF2000FFF79EF800210620FFF71AFF6D
:1011600001210220FFF716FF00210C20FFF712FFDC
:1011700001210A20FFF70EFF2000FFF78BF810BDBA
:1011800010B5040000210220FFF704FF0021032016
:10119000FFF700FF00210620FFF7FCFE00210720DB
:1011A000FFF7F8FE00210A20FFF7F4FE00210B20D4
:1011B000FFF7F0FE00210C20FFF7ECFE00210D20D0
:1011C000FFF7E8FE01210A20FFF7E4FE01210B20D2
:1011D000FFF7E0FE2000FFF75DF800210A20FFF78F
:1011E000D9FE01210C20FFF7D5FE2000FFF752F8B1
:1011F00000210B20FFF7CEFE01210D20FFF7CAFED4
:101200002000FFF747F800210C20FFF7C3FE012163
:101210000A20FFF7BFFE2000FFF73CF810BD10B515
:10122000040000210220FFF7B5FE00210320FFF794
:10123000B1FE00210620FFF7ADFE00210720FFF7D9
:10124000A9FE00210A20FFF7A5FE00210B20FFF7D1
:10125000A1FE00210C20FFF79DFE00210D20FFF7CD
:1012600099FE01210220FFF795FE01210720FFF7DB
:1012700091FE2000FFF70EF800210220FFF78AFE02
:1012800001210620FFF786FE2000FFF703F800216A
:101290000720FFF77FFE01210320FFF77BFE2000E0
:1012A000FEF7F8FF00210620FFF774FE012102205F
:1012B000FFF770FE2000FEF7EDFF10BD30B51024E3
:1012C00095B03022002108A800F0ABF922000021DF
:1012D000684600F0A6F92200002104A800F0A1F958
:1012E000012502230C9408A8002408930B95FFF70E
:1012F000E1F80723210068460093019402940394C7
:10130000FFF7ECFA04A804950694FFF793FB15B0D9
:1013100030BD0000F7B5FEF79FFFFFF7CFFF524D3E
:10132000524B00242B6096230C279B0128006B60F6
:10133000AC60EC602C61AC61EC612C626C626F6142
:10134000FFF7E8FC62232100022001AE3380FFF7A3
:10135000C5FD21001120FFF7C1FD21000320FFF78B
:10136000BDFD21000620FFF7B9FD21000720FFF792
:10137000B5FD21000A20FFF7B1FD21000B20FFF78A
:10138000ADFD21003800FFF7A9FD21000D20FFF77A
:10139000A5FD21001220FFF7A1FD21000E20FFF77F
:1013A0009DFDF534FF340A23012231002800FFF7A8
:1013B0001FFD3378312B07D11A270120013FFFF79A
:1013C00001FE002FF9D1EEE7322B07D11A270120B9
:1013D000013FFFF7D5FE002FF9D1E4E7332B07D10A
:1013E0001A270120013FFFF75CFE002FF9D1DAE751
:1013F000342B07D11A270120013FFFF710FF002FE0
:10140000F9D1D0E7362B0BD112200121FFF7C2FD15
:101410002000FEF73FFF00211220FFF7BBFDC2E7CF
:10142000352BC0D100210220FFF7B4FD002103209D
:10143000FFF7B0FD00210620FFF7ACFD00210720DB
:10144000FFF7A8FD00210A20FFF7A4FD00210B20D3
:10145000FFF7A0FD00210C20FFF79CFD00210D20CF
:10146000FFF798FDD7E7C046D000002000380140C4
:1014700001200A4B82B099690143996180219A69E0
:10148000490502400092009ADA690A43DA61DB6991
:101490000B400193019B02B07047C0460010024010
:1014A00010B5040088B01422002103A800F0B9F898
:1014B000124B22689A421FD18020114BC0019969BA
:1014C0000143996180219A69890202400192019A3F
:1014D0005A6990200A435A615B69C0050B40029328
:1014E000029B0C2303930A3B04930133069303A945
:1014F000023B0793FEF728FF08B010BD00380140FB
:10150000001002407047FEE77047704710B5FEF7C5
:10151000B3FE10BD0121114B11481A680A431A602D
:101520005A6802405A601A680E4802401A601A68E7
:101530000D4802401A605A680C4802400F205A6059
:10154000DA6A8243DA621A6B094802401A635A6BFC
:101550008A435A6300229A607047C04600100240D6
:101560000CB8FF08FFFFF6FEFFFFFBFFFFFFC0FF09
:10157000ECFEFFFF0D4885460D480E490E4A00233C
:1015800002E0D458C4500433C4188C42F9D30B4A37
:101590000B4C002301E013600432A242FBD3FFF79F
:1015A000B9FF00F011F8FFF7B5FEFEE700100020CC
:1015B00000000020AC00002090160008AC000020C5
:1015C00044010020FEE7000070B500260C4D0D4CD4
:1015D000641BA410A64209D1002600F02BF80A4D86
:1015E0000A4C641BA410A64205D170BDB300EB5891
:1015F00098470136EEE7B300EB5898470136F2E71B
:101600008816000888160008881600088C1600083E
:10161000002310B59A4200D110BDCC5CC4540133F4
:10162000F8E703008218934200D170471970013324
:10163000F9E70000F8B5C046F8BC08BC9E46704704
:0C164000F8B5C046F8BC08BC9E467047D8
:10164C0002030405060708090A0B0C0D0E0F1010F7
:10165C000102030405060708090A0B0C0D0E0F10F6
:10166C000004080200000000000000000102030456
:0C167C000607080900000000010203043A
:04168800E90000086D
:04168C00C100000891
:10169000000000000000000000000000000000004A
:1016A000001400480100000000140048020000007F
:1016B000000000000000000000000000000000002A
:1016C0000000004801000000000000480200000087
:1016D000000000480400000000000048080000006E
:1016E000000000481000000000000048200000003A
:1016F000000000484000000000000048800000009A
:10170000000400480200000000000000000000008B
:10171000000000000000000000000048000200007F
:10172000000000480004000000000000000000006D
:0C173000000000000000000000127A0021
:040000050800157565
:00000001FF
